:060000000A128A1110280B
:10000800FE00030E83120313BC000408BD000A0897
:10001800BE000A128A1133280A128A111328831380
:100028005330FD000230FE006730FF003F3084008F
:100038000A128A117F220A128A11D301D401D5012A
:10004800D601D701D801D901DA01DB01DC01DD01D4
:10005800DE01DF01E00183010A128A118E2A0B1DDD
:10006800362837286028FC3081000B1108108810CA
:1000780008115F08031D41284228482808145B0816
:100088008700DF01DF0A60285F03031D4C284D2825
:10009800552888145A0887000230B7003708DF004F
:1000A800602802305F06031D5A285B28602808155F
:1000B80059088700DF0160280B1C63286428F6288C
:1000C800060886000B1086186A286B286E280130EF
:1000D8008502762806187128722876280130B7001C
:1000E80037088507E00103306002031C7C287D285F
:1000F8007E28DA286008031D822883289D280508A1
:10010800B700B8013708A4003808A5006008B9008E
:10011800BA013908A6003A08A7000A128A11FF2076
:100128000A128A11831203132408BB003B08DE005D
:10013800D5286003031DA128A228BC280508B700FC
:10014800B8013708A4003808A5006008B900BA014A
:100158003908A6003A08A7000A128A11FF200A12D5
:100168008A11831203132408BB003B08DD00D5283D
:100178000508B700B8013708A4003808A5006008CA
:10018800B900BA013908A6003A08A7000A128A116C
:10019800FF200A128A11831203132408BB003B08AC
:1001A800DC000130B7003708E00777285C08B700A3
:1001B80037073F3E840083130008B8003808DB0087
:1001C8005D08B70037073F3E84000008B8003808CC
:1001D800DA005E08B70037073F3E84000008B80021
:1001E8003808D9003E088A003D0884003C0E830088
:1001F800FE0E7E0E09006430F6000030F700831210
:1002080003132508F9002408F8000A128A1193211B
:100218000A128A11760883120313A8002808B60068
:100228000A30F6000030F7003608A800A9012808AF
:10023800F0002908F1009C30F200FF30F3000A12A8
:100248008A112D220A128A118312031324087007B7
:10025800F80025080318250A7107F9000A128A11FF
:1002680093210A128A11760883120313AA002A0816
:10027800B5009C30A8002808F00036080A128A1138
:1002880052220A128A1183120313A900F630AA0017
:100298002A08F00035080A128A1152220A128A1115
:1002A8008312031329072407AB002B08B4002E3050
:1002B8008400530883138000840A54088000840A49
:1002C80055088000840A56088000840A5708800070
:1002D800840A580880003408A800A9012808AE003C
:1002E8002908AF003508A800A9012808B000290886
:1002F800B1003608A800A9012808B2002908B300EF
:100308002608A80028072E3E84000008AC00840AAE
:100318000008AD002D08A5002C08A40008008312D1
:100328000313A101F71F99299A29A129F609F709A9
:10033800F60A0319F70AA101A10AF91FA429A52998
:10034800AE29F809F909F80A0319F90A0130FA007F
:100358007A08A106A201A301760877040319B52932
:10036800B629ED29A001A00AC42901300310F60D11
:10037800F70DFF3E031DBA290130FA007A08A007DD
:10038800F71FC729C829B92901300310A20DA30DE9
:10039800FF3E031DC92977087902031DD529760870
:1003A8007802031CD829D929E0297608F8027708A9
:1003B800031CF903F902221401300310F70CF60CA0
:1003C800FF3E031DE1290130A002031DEC29ED29A0
:1003D800C82921080319F129F229F729A209A30933
:1003E800A20A0319A30A2308F7002208F600080046
:1003F8008316031788018901831603130F088F39A1
:1004080040388F000F1485018701081088100811E3
:10041800BF30831203138700831603130614861450
:100428008113151495141614961483120313860158
:100438000B108B158B17831603138112811101156D
:1004480081140110FC308312031381000B118B16E9
:100458000800F401F501701C322A332A392A72087F
:10046800F4070318F50A7308F50701300310F20DB5
:10047800F30DFF3E031D3A2A01300310F10CF00C76
:10048800FF3E031D412A70087104031D4C2A4D2AA2
:100498002F2A7508F1007408F0000800F300F20133
:1004A800731C572A582A5C2A7008F1007108F20751
:1004B8000310F00D0310F30C7308031D642A652A5A
:1004C800542A72080800BF34003486340034DB3400
:1004D8000034CF340034E6340034ED340034FD34D5
:1004E800003487340034FF340034EF3400347E089D
:1004F8008A007F0882000A128A117B220A128A1156
:100508008000840A04087D0603190034FF0A0319D1
:10051800FE0A7F2A8312031385018601BF308700F4
:1005280088010A128A11FC210A128A119A2A0A12CF
:040538008A111028EC
:08400000FF3FFF3FFF3FFF3FC0
:04400E00D420FF3F7C
:00000001FF
